{
  "address": "0xFCea1B2bd85cCd4cF9f899930850c85213eC88c8",
  "abi": [
    {
      "inputs": [
        {
          "internalType": "address",
          "name": "_owner",
          "type": "address"
        }
      ],
      "stateMutability": "nonpayable",
      "type": "constructor"
    },
    {
      "anonymous": false,
      "inputs": [
        {
          "indexed": true,
          "internalType": "address",
          "name": "greetingSetter",
          "type": "address"
        },
        {
          "indexed": false,
          "internalType": "string",
          "name": "newGreeting",
          "type": "string"
        },
        {
          "indexed": false,
          "internalType": "bool",
          "name": "premium",
          "type": "bool"
        },
        {
          "indexed": false,
          "internalType": "uint256",
          "name": "value",
          "type": "uint256"
        }
      ],
      "name": "GreetingChange",
      "type": "event"
    },
    {
      "inputs": [],
      "name": "greeting",
      "outputs": [
        {
          "internalType": "string",
          "name": "",
          "type": "string"
        }
      ],
      "stateMutability": "view",
      "type": "function"
    },
    {
      "inputs": [],
      "name": "greeting2",
      "outputs": [
        {
          "internalType": "string",
          "name": "",
          "type": "string"
        }
      ],
      "stateMutability": "view",
      "type": "function"
    },
    {
      "inputs": [],
      "name": "owner",
      "outputs": [
        {
          "internalType": "address",
          "name": "",
          "type": "address"
        }
      ],
      "stateMutability": "view",
      "type": "function"
    },
    {
      "inputs": [],
      "name": "premium",
      "outputs": [
        {
          "internalType": "bool",
          "name": "",
          "type": "bool"
        }
      ],
      "stateMutability": "view",
      "type": "function"
    },
    {
      "inputs": [
        {
          "internalType": "string",
          "name": "_newGreeting",
          "type": "string"
        }
      ],
      "name": "setGreeting",
      "outputs": [],
      "stateMutability": "payable",
      "type": "function"
    },
    {
      "inputs": [],
      "name": "totalCounter",
      "outputs": [
        {
          "internalType": "uint256",
          "name": "",
          "type": "uint256"
        }
      ],
      "stateMutability": "view",
      "type": "function"
    },
    {
      "inputs": [
        {
          "internalType": "address",
          "name": "",
          "type": "address"
        }
      ],
      "name": "userGreetingCounter",
      "outputs": [
        {
          "internalType": "uint256",
          "name": "",
          "type": "uint256"
        }
      ],
      "stateMutability": "view",
      "type": "function"
    },
    {
      "inputs": [],
      "name": "withdraw",
      "outputs": [],
      "stateMutability": "nonpayable",
      "type": "function"
    },
    {
      "stateMutability": "payable",
      "type": "receive"
    }
  ],
  "transactionHash": "0x1e17db38888a6d85ae135c1cb2d0ae804be9cbff8d1fda5faa9c12c0a5258885",
  "args": [
    "0xcde1b1993BCa17ed2E0F01eca1dbda7c1fA4Ee13"
  ],
  "numDeployments": 1,
  "solcInputHash": "a530ace8f7c32d5702557b35b74ee629",
  "bytecode": "0x60e0604052601c60a09081527f4275696c64696e6720556e73746f707061626c6520417070732121210000000060c05260009061003c9082610169565b5060408051808201909152601e81527f4275696c64696e6720556e73746f707061626c65204170707320322121210000602082015260019061007e9082610169565b506002805460ff19169055600060035534801561009a57600080fd5b50604051610abd380380610abd8339810160408190526100b991610228565b6001600160a01b0316608052610258565b634e487b7160e01b600052604160045260246000fd5b600181811c908216806100f457607f821691505b60208210810361011457634e487b7160e01b600052602260045260246000fd5b50919050565b601f82111561016457600081815260208120601f850160051c810160208610156101415750805b601f850160051c820191505b818110156101605782815560010161014d565b5050505b505050565b81516001600160401b03811115610182576101826100ca565b6101968161019084546100e0565b8461011a565b602080601f8311600181146101cb57600084156101b35750858301515b600019600386901b1c1916600185901b178555610160565b600085815260208120601f198616915b828110156101fa578886015182559484019460019091019084016101db565b50858210156102185787850151600019600388901b60f8161c191681555b5050505050600190811b01905550565b60006020828403121561023a57600080fd5b81516001600160a01b038116811461025157600080fd5b9392505050565b60805161083d6102806000396000818160df0152818161025501526102bb015261083d6000f3fe60806040526004361061007f5760003560e01c8063a41368621161004e578063a41368621461013d578063cea49c3c14610150578063e0a73a931461017d578063ef690cc0146101a757600080fd5b80631e03e6501461008b5780633ccfd60b146100b65780638da5cb5b146100cd57806397feba9d1461011957600080fd5b3661008657005b600080fd5b34801561009757600080fd5b506100a06101bc565b6040516100ad919061050a565b60405180910390f35b3480156100c257600080fd5b506100cb61024a565b005b3480156100d957600080fd5b506101017f000000000000000000000000000000000000000000000000000000000000000081565b6040516001600160a01b0390911681526020016100ad565b34801561012557600080fd5b5061012f60035481565b6040519081526020016100ad565b6100cb61014b36600461053a565b610374565b34801561015c57600080fd5b5061012f61016b3660046105eb565b60046020526000908152604090205481565b34801561018957600080fd5b506002546101979060ff1681565b60405190151581526020016100ad565b3480156101b357600080fd5b506100a0610446565b600180546101c990610614565b80601f01602080910402602001604051908101604052809291908181526020018280546101f590610614565b80156102425780601f1061021757610100808354040283529160200191610242565b820191906000526020600020905b81548152906001019060200180831161022557829003601f168201915b505050505081565b336001600160a01b037f000000000000000000000000000000000000000000000000000000000000000016146102b75760405162461bcd60e51b815260206004820152600d60248201526c2737ba103a34329027bbb732b960991b60448201526064015b60405180910390fd5b60007f00000000000000000000000000000000000000000000000000000000000000006001600160a01b03164760405160006040518083038185875af1925050503d8060008114610324576040519150601f19603f3d011682016040523d82523d6000602084013e610329565b606091505b50509050806103715760405162461bcd60e51b81526020600482015260146024820152732330b4b632b2103a379039b2b7321022ba3432b960611b60448201526064016102ae565b50565b6103976040518060600160405280602181526020016107e7602191398233610453565b60006103a3828261069c565b506001600360008282546103b7919061075c565b90915550503360009081526004602052604081208054600192906103dc90849061075c565b909155505034156103f9576002805460ff19166001179055610404565b6002805460ff191690555b60405133907f94cbd7e04dca26a7667654f6448b2ca0a40fec602118dc5fd8c82b9cf3c645ad9061043b9084903480151591610783565b60405180910390a250565b600080546101c990610614565b61049a83838360405160240161046b939291906107a8565b60408051601f198184030181529190526020810180516001600160e01b03166395ed019560e01b17905261049f565b505050565b6103718160006a636f6e736f6c652e6c6f679050600080835160208501845afa505050565b6000815180845260005b818110156104ea576020818501810151868301820152016104ce565b506000602082860101526020601f19601f83011685010191505092915050565b60208152600061051d60208301846104c4565b9392505050565b634e487b7160e01b600052604160045260246000fd5b60006020828403121561054c57600080fd5b813567ffffffffffffffff8082111561056457600080fd5b818401915084601f83011261057857600080fd5b81358181111561058a5761058a610524565b604051601f8201601f19908116603f011681019083821181831017156105b2576105b2610524565b816040528281528760208487010111156105cb57600080fd5b826020860160208301376000928101602001929092525095945050505050565b6000602082840312156105fd57600080fd5b81356001600160a01b038116811461051d57600080fd5b600181811c9082168061062857607f821691505b60208210810361064857634e487b7160e01b600052602260045260246000fd5b50919050565b601f82111561049a57600081815260208120601f850160051c810160208610156106755750805b601f850160051c820191505b8181101561069457828155600101610681565b505050505050565b815167ffffffffffffffff8111156106b6576106b6610524565b6106ca816106c48454610614565b8461064e565b602080601f8311600181146106ff57600084156106e75750858301515b600019600386901b1c1916600185901b178555610694565b600085815260208120601f198616915b8281101561072e5788860151825594840194600190910190840161070f565b508582101561074c5787850151600019600388901b60f8161c191681555b5050505050600190811b01905550565b8082018082111561077d57634e487b7160e01b600052601160045260246000fd5b92915050565b60608152600061079660608301866104c4565b93151560208301525060400152919050565b6060815260006107bb60608301866104c4565b82810360208401526107cd81866104c4565b91505060018060a01b038316604083015294935050505056fe53657474696e67206e6577206772656574696e6720272573272066726f6d202573a2646970667358221220cbbfd964441bdb670a996eda2b9bd907f6dad3c425da406ed41f188d7931088564736f6c63430008110033",
  "devdoc": {
    "author": "BuidlGuidl",
    "kind": "dev",
    "methods": {
      "setGreeting(string)": {
        "params": {
          "_newGreeting": "(string memory) - new greeting to save on the contract"
        }
      }
    },
    "version": 1
  },
  "userdoc": {
    "kind": "user",
    "methods": {
      "setGreeting(string)": {
        "notice": "Function that allows anyone to change the state variable \"greeting\" of the contract and increase the counters"
      },
      "withdraw()": {
        "notice": "Function that allows the owner to withdraw all the Ether in the contract The function can only be called by the owner of the contract as defined by the isOwner modifier"
      }
    },
    "notice": "A smart contract that allows changing a state variable of the contract and tracking the changes It also allows the owner to withdraw the Ether in the contract",
    "version": 1
  },
  "storageLayout": {
    "storage": [
      {
        "astId": 8,
        "contract": "contracts/YourContract.sol:YourContract",
        "label": "greeting",
        "offset": 0,
        "slot": "0",
        "type": "t_string_storage"
      },
      {
        "astId": 11,
        "contract": "contracts/YourContract.sol:YourContract",
        "label": "greeting2",
        "offset": 0,
        "slot": "1",
        "type": "t_string_storage"
      },
      {
        "astId": 14,
        "contract": "contracts/YourContract.sol:YourContract",
        "label": "premium",
        "offset": 0,
        "slot": "2",
        "type": "t_bool"
      },
      {
        "astId": 17,
        "contract": "contracts/YourContract.sol:YourContract",
        "label": "totalCounter",
        "offset": 0,
        "slot": "3",
        "type": "t_uint256"
      },
      {
        "astId": 21,
        "contract": "contracts/YourContract.sol:YourContract",
        "label": "userGreetingCounter",
        "offset": 0,
        "slot": "4",
        "type": "t_mapping(t_address,t_uint256)"
      }
    ],
    "types": {
      "t_address": {
        "encoding": "inplace",
        "label": "address",
        "numberOfBytes": "20"
      },
      "t_bool": {
        "encoding": "inplace",
        "label": "bool",
        "numberOfBytes": "1"
      },
      "t_mapping(t_address,t_uint256)": {
        "encoding": "mapping",
        "key": "t_address",
        "label": "mapping(address => uint256)",
        "numberOfBytes": "32",
        "value": "t_uint256"
      },
      "t_string_storage": {
        "encoding": "bytes",
        "label": "string",
        "numberOfBytes": "32"
      },
      "t_uint256": {
        "encoding": "inplace",
        "label": "uint256",
        "numberOfBytes": "32"
      }
    }
  }
}